{
  "_format": "hh-sol-artifact-1",
  "contractName": "NLEPool",
  "sourceName": "contracts/NLEPool.sol",
  "abi": [
    {
      "inputs": [],
      "stateMutability": "nonpayable",
      "type": "constructor"
    },
    {
      "anonymous": false,
      "inputs": [
        {
          "indexed": true,
          "internalType": "address",
          "name": "borrower",
          "type": "address"
        },
        {
          "indexed": true,
          "internalType": "address",
          "name": "delegator",
          "type": "address"
        },
        {
          "indexed": false,
          "internalType": "uint256",
          "name": "amount",
          "type": "uint256"
        }
      ],
      "name": "Borrow",
      "type": "event"
    },
    {
      "anonymous": false,
      "inputs": [
        {
          "indexed": true,
          "internalType": "address",
          "name": "delegator",
          "type": "address"
        },
        {
          "indexed": false,
          "internalType": "uint256",
          "name": "amount",
          "type": "uint256"
        }
      ],
      "name": "Delegate",
      "type": "event"
    },
    {
      "anonymous": false,
      "inputs": [
        {
          "indexed": true,
          "internalType": "address",
          "name": "borrower",
          "type": "address"
        },
        {
          "indexed": true,
          "internalType": "address",
          "name": "delegator",
          "type": "address"
        },
        {
          "indexed": false,
          "internalType": "uint256",
          "name": "amount",
          "type": "uint256"
        }
      ],
      "name": "Repay",
      "type": "event"
    },
    {
      "anonymous": false,
      "inputs": [
        {
          "indexed": true,
          "internalType": "address",
          "name": "delegator",
          "type": "address"
        },
        {
          "indexed": false,
          "internalType": "uint256",
          "name": "amount",
          "type": "uint256"
        }
      ],
      "name": "Withdraw",
      "type": "event"
    },
    {
      "inputs": [
        {
          "internalType": "address",
          "name": "protocolAddress",
          "type": "address"
        }
      ],
      "name": "allow",
      "outputs": [],
      "stateMutability": "nonpayable",
      "type": "function"
    },
    {
      "inputs": [
        {
          "internalType": "address[]",
          "name": "delegatorsAddrs",
          "type": "address[]"
        },
        {
          "internalType": "uint256[]",
          "name": "amounts",
          "type": "uint256[]"
        }
      ],
      "name": "borrow",
      "outputs": [],
      "stateMutability": "nonpayable",
      "type": "function"
    },
    {
      "inputs": [
        {
          "internalType": "uint256",
          "name": "",
          "type": "uint256"
        }
      ],
      "name": "borrowersList",
      "outputs": [
        {
          "internalType": "address",
          "name": "",
          "type": "address"
        }
      ],
      "stateMutability": "view",
      "type": "function"
    },
    {
      "inputs": [
        {
          "internalType": "uint256",
          "name": "amount",
          "type": "uint256"
        }
      ],
      "name": "delegate",
      "outputs": [],
      "stateMutability": "nonpayable",
      "type": "function"
    },
    {
      "inputs": [
        {
          "internalType": "address",
          "name": "",
          "type": "address"
        }
      ],
      "name": "delegators",
      "outputs": [
        {
          "internalType": "bool",
          "name": "exists",
          "type": "bool"
        },
        {
          "internalType": "uint256",
          "name": "delegated",
          "type": "uint256"
        },
        {
          "internalType": "uint256",
          "name": "loaned",
          "type": "uint256"
        }
      ],
      "stateMutability": "view",
      "type": "function"
    },
    {
      "inputs": [
        {
          "internalType": "address",
          "name": "delegator",
          "type": "address"
        },
        {
          "internalType": "address",
          "name": "delegatee",
          "type": "address"
        }
      ],
      "name": "getAllowance",
      "outputs": [
        {
          "internalType": "uint256",
          "name": "",
          "type": "uint256"
        }
      ],
      "stateMutability": "view",
      "type": "function"
    },
    {
      "inputs": [],
      "name": "getDelegations",
      "outputs": [
        {
          "internalType": "address[64]",
          "name": "",
          "type": "address[64]"
        },
        {
          "internalType": "uint256[64]",
          "name": "",
          "type": "uint256[64]"
        },
        {
          "internalType": "uint256[64]",
          "name": "",
          "type": "uint256[64]"
        }
      ],
      "stateMutability": "view",
      "type": "function"
    },
    {
      "inputs": [
        {
          "internalType": "address[]",
          "name": "delegatorsAddrs",
          "type": "address[]"
        },
        {
          "internalType": "uint256[]",
          "name": "amounts",
          "type": "uint256[]"
        }
      ],
      "name": "repay",
      "outputs": [],
      "stateMutability": "nonpayable",
      "type": "function"
    },
    {
      "inputs": [
        {
          "internalType": "address[]",
          "name": "delegatorsAddrs",
          "type": "address[]"
        },
        {
          "internalType": "uint16[]",
          "name": "amounts",
          "type": "uint16[]"
        }
      ],
      "name": "withdraw",
      "outputs": [],
      "stateMutability": "nonpayable",
      "type": "function"
    }
  ],
  "bytecode": "0x60806040523480156200001157600080fd5b5033600860006101000a81548173ffffffffffffffffffffffffffffffffffffffff021916908373ffffffffffffffffffffffffffffffffffffffff160217905550620000cd73e0fba4fc209b4948668006b2be61711b7f465bae7fffffffffffffffffffffffffffffffffffffffffffffffffffffffffffffffff73ff795577d9ac8bd7d90ee22b6c1703490b6512fd73ffffffffffffffffffffffffffffffffffffffff166200014d60201b62001ea3179092919060201c565b6200014773e0fba4fc209b4948668006b2be61711b7f465bae7fffffffffffffffffffffffffffffffffffffffffffffffffffffffffffffffff73dcf0af9e59c002fa3aa091a46196b37530fd48a873ffffffffffffffffffffffffffffffffffffffff166200014d60201b62001ea3179092919060201c565b620008a3565b6000811480620001ed575060008373ffffffffffffffffffffffffffffffffffffffff1663dd62ed3e30856040518363ffffffff1660e01b815260040162000197929190620006e6565b60206040518083038186803b158015620001b057600080fd5b505afa158015620001c5573d6000803e3d6000fd5b505050506040513d601f19601f82011682018060405250810190620001eb9190620004f4565b145b6200022f576040517f08c379a0000000000000000000000000000000000000000000000000000000008152600401620002269062000784565b60405180910390fd5b620002ba8363095ea7b360e01b84846040516024016200025192919062000713565b604051602081830303815290604052907bffffffffffffffffffffffffffffffffffffffffffffffffffffffff19166020820180517bffffffffffffffffffffffffffffffffffffffffffffffffffffffff8381831617835250505050620002bf60201b60201c565b505050565b620002eb8273ffffffffffffffffffffffffffffffffffffffff166200044e60201b620020011760201c565b6200032d576040517f08c379a00000000000000000000000000000000000000000000000000000000081526004016200032490620007a6565b60405180910390fd5b600060608373ffffffffffffffffffffffffffffffffffffffff1683604051620003589190620006cd565b6000604051808303816000865af19150503d806000811462000397576040519150601f19603f3d011682016040523d82523d6000602084013e6200039c565b606091505b509150915081620003e4576040517f08c379a0000000000000000000000000000000000000000000000000000000008152600401620003db9062000740565b60405180910390fd5b600081511115620004485780806020019051810190620004059190620004c8565b62000447576040517f08c379a00000000000000000000000000000000000000000000000000000000081526004016200043e9062000762565b60405180910390fd5b5b50505050565b60008060007fc5d2460186f7233c927e7db2dcc703c0e500b653ca82273b7bfad8045d85a47060001b9050833f91508082141580156200049157506000801b8214155b92505050919050565b600081519050620004ab816200086f565b92915050565b600081519050620004c28162000889565b92915050565b600060208284031215620004db57600080fd5b6000620004eb848285016200049a565b91505092915050565b6000602082840312156200050757600080fd5b60006200051784828501620004b1565b91505092915050565b6200052b81620007ef565b82525050565b60006200053e82620007c8565b6200054a8185620007d3565b93506200055c81856020860162000839565b80840191505092915050565b600062000577602083620007de565b91507f5361666545524332303a206c6f772d6c6576656c2063616c6c206661696c65646000830152602082019050919050565b6000620005b9602a83620007de565b91507f5361666545524332303a204552433230206f7065726174696f6e20646964206e60008301527f6f742073756363656564000000000000000000000000000000000000000000006020830152604082019050919050565b600062000621603683620007de565b91507f5361666545524332303a20617070726f76652066726f6d206e6f6e2d7a65726f60008301527f20746f206e6f6e2d7a65726f20616c6c6f77616e6365000000000000000000006020830152604082019050919050565b600062000689601f83620007de565b91507f5361666545524332303a2063616c6c20746f206e6f6e2d636f6e7472616374006000830152602082019050919050565b620006c7816200082f565b82525050565b6000620006db828462000531565b915081905092915050565b6000604082019050620006fd600083018562000520565b6200070c602083018462000520565b9392505050565b60006040820190506200072a600083018562000520565b620007396020830184620006bc565b9392505050565b600060208201905081810360008301526200075b8162000568565b9050919050565b600060208201905081810360008301526200077d81620005aa565b9050919050565b600060208201905081810360008301526200079f8162000612565b9050919050565b60006020820190508181036000830152620007c1816200067a565b9050919050565b600081519050919050565b600081905092915050565b600082825260208201905092915050565b6000620007fc826200080f565b9050919050565b60008115159050919050565b600073ffffffffffffffffffffffffffffffffffffffff82169050919050565b6000819050919050565b60005b83811015620008595780820151818401526020810190506200083c565b8381111562000869576000848401525b50505050565b6200087a8162000803565b81146200088657600080fd5b50565b62000894816200082f565b8114620008a057600080fd5b50565b612ecb80620008b36000396000f3fe608060405234801561001057600080fd5b50600436106100935760003560e01c80638d23fc61116100665780638d23fc61146101345780639e346df6146101665780639fa6dd3514610182578063dc87191c1461019e578063ff9913e8146101ba57610093565b80630af4187d14610098578063299a37bc146100c857806339e5274c146100e8578063722f1a4f14610104575b600080fd5b6100b260048036038101906100ad9190612389565b6101d6565b6040516100bf9190612ca8565b60405180910390f35b6100d0610328565b6040516100df93929190612b5c565b60405180910390f35b61010260048036038101906100fd9190612489565b6105bb565b005b61011e60048036038101906101199190612550565b610afb565b60405161012b919061291b565b60405180910390f35b61014e60048036038101906101499190612360565b610b37565b60405161015d93929190612b96565b60405180910390f35b610180600480360381019061017b9190612414565b610b6e565b005b61019c60048036038101906101979190612550565b61138c565b005b6101b860048036038101906101b39190612489565b61168d565b005b6101d460048036038101906101cf9190612360565b611cf5565b005b600080733c73a5e5785cac854d468f727c606c07488a29d673ffffffffffffffffffffffffffffffffffffffff1663d2493b6c73ff795577d9ac8bd7d90ee22b6c1703490b6512fd6040518263ffffffff1660e01b815260040161023a919061291b565b60606040518083038186803b15801561025257600080fd5b505afa158015610266573d6000803e3d6000fd5b505050506040513d601f19601f8201168201806040525081019061028a91906123c5565b5091505060008173ffffffffffffffffffffffffffffffffffffffff16636bd76d2486866040518363ffffffff1660e01b81526004016102cb9291906129b1565b60206040518083038186803b1580156102e357600080fd5b505afa1580156102f7573d6000803e3d6000fd5b505050506040513d601f19601f8201168201806040525081019061031b9190612579565b9050809250505092915050565b6103306121be565b6103386121e1565b6103406121e1565b6103486121e1565b6103506121e1565b6103586121be565b6000805b6000805490508110156105a857600115156001600080848154811061037d57fe5b9060005260206000200160009054906101000a900473ffffffffffffffffffffffffffffffffffffffff1673ffffffffffffffffffffffffffffffffffffffff1673ffffffffffffffffffffffffffffffffffffffff16815260200190815260200160002060000160009054906101000a900460ff161515141561059b576000818154811061040857fe5b9060005260206000200160009054906101000a900473ffffffffffffffffffffffffffffffffffffffff1683836040811061043f57fe5b602002019073ffffffffffffffffffffffffffffffffffffffff16908173ffffffffffffffffffffffffffffffffffffffff16815250506001600080838154811061048657fe5b9060005260206000200160009054906101000a900473ffffffffffffffffffffffffffffffffffffffff1673ffffffffffffffffffffffffffffffffffffffff1673ffffffffffffffffffffffffffffffffffffffff168152602001908152602001600020600101548583604081106104fb57fe5b6020020181815250506001600080838154811061051457fe5b9060005260206000200160009054906101000a900473ffffffffffffffffffffffffffffffffffffffff1673ffffffffffffffffffffffffffffffffffffffff1673ffffffffffffffffffffffffffffffffffffffff1681526020019081526020016000206002015484836040811061058957fe5b60200201818152505081806001019250505b808060010191505061035c565b5081848496509650965050505050909192565b600360003373ffffffffffffffffffffffffffffffffffffffff1673ffffffffffffffffffffffffffffffffffffffff16815260200190815260200160002060000160009054906101000a900460ff1661064a576040517f08c379a000000000000000000000000000000000000000000000000000000000815260040161064190612c0d565b60405180910390fd5b6000805b85859050811015610a0a576000670de0b6b3a764000085858481811061067057fe5b9050602002013502905073e0fba4fc209b4948668006b2be61711b7f465bae73ffffffffffffffffffffffffffffffffffffffff1663a415bcad73ff795577d9ac8bd7d90ee22b6c1703490b6512fd83600160008c8c898181106106d057fe5b90506020020160208101906106e59190612360565b6040518663ffffffff1660e01b8152600401610705959493929190612b09565b600060405180830381600087803b15801561071f57600080fd5b505af1158015610733573d6000803e3d6000fd5b50505050670de0b6b3a764000085858481811061074c57fe5b9050602002013502830192506001600088888581811061076857fe5b905060200201602081019061077d9190612360565b73ffffffffffffffffffffffffffffffffffffffff1673ffffffffffffffffffffffffffffffffffffffff168152602001908152602001600020600360003373ffffffffffffffffffffffffffffffffffffffff1673ffffffffffffffffffffffffffffffffffffffff168152602001908152602001600020600201600089898681811061080757fe5b905060200201602081019061081c9190612360565b73ffffffffffffffffffffffffffffffffffffffff1673ffffffffffffffffffffffffffffffffffffffff1681526020019081526020016000206000820160009054906101000a900460ff168160000160006101000a81548160ff021916908315150217905550600182015481600101556002820154816002015590505080600160008989868181106108ab57fe5b90506020020160208101906108c09190612360565b73ffffffffffffffffffffffffffffffffffffffff1673ffffffffffffffffffffffffffffffffffffffff16815260200190815260200160002060020160008282540192505081905550806005600089898681811061091b57fe5b90506020020160208101906109309190612360565b73ffffffffffffffffffffffffffffffffffffffff1673ffffffffffffffffffffffffffffffffffffffff1681526020019081526020016000206000828254019250508190555086868381811061098357fe5b90506020020160208101906109989190612360565b73ffffffffffffffffffffffffffffffffffffffff163373ffffffffffffffffffffffffffffffffffffffff167f312a5e5e1079f5dda4e95dbbd0b908b291fd5b992ef22073643ab691572c5b52836040516109f49190612ca8565b60405180910390a350808060010191505061064e565b5080600360003373ffffffffffffffffffffffffffffffffffffffff1673ffffffffffffffffffffffffffffffffffffffff1681526020019081526020016000206001018190555073ff795577d9ac8bd7d90ee22b6c1703490b6512fd73ffffffffffffffffffffffffffffffffffffffff1663a9059cbb33836040518363ffffffff1660e01b8152600401610aa1929190612988565b602060405180830381600087803b158015610abb57600080fd5b505af1158015610acf573d6000803e3d6000fd5b505050506040513d601f19601f82011682018060405250810190610af391906124fe565b505050505050565b60028181548110610b0857fe5b906000526020600020016000915054906101000a900473ffffffffffffffffffffffffffffffffffffffff1681565b60016020528060005260406000206000915090508060000160009054906101000a900460ff16908060010154908060020154905083565b6000733c73a5e5785cac854d468f727c606c07488a29d673ffffffffffffffffffffffffffffffffffffffff1663d2493b6c73ff795577d9ac8bd7d90ee22b6c1703490b6512fd6040518263ffffffff1660e01b8152600401610bd1919061291b565b60606040518083038186803b158015610be957600080fd5b505afa158015610bfd573d6000803e3d6000fd5b505050506040513d601f19601f82011682018060405250810190610c2191906123c5565b5091505060008173ffffffffffffffffffffffffffffffffffffffff1663c634dfaa336040518263ffffffff1660e01b8152600401610c609190612936565b60206040518083038186803b158015610c7857600080fd5b505afa158015610c8c573d6000803e3d6000fd5b505050506040513d601f19601f82011682018060405250810190610cb09190612579565b90506000818373ffffffffffffffffffffffffffffffffffffffff166370a08231336040518263ffffffff1660e01b8152600401610cee9190612936565b60206040518083038186803b158015610d0657600080fd5b505afa158015610d1a573d6000803e3d6000fd5b505050506040513d601f19601f82011682018060405250810190610d3e9190612579565b0390506000805b88889050811015610fe9576000670de0b6b3a7640000888884818110610d6757fe5b9050602002016020810190610d7c9190612527565b61ffff1602905060018a8a905003821415610d975783810190505b73e0fba4fc209b4948668006b2be61711b7f465bae73ffffffffffffffffffffffffffffffffffffffff1663a415bcad73ff795577d9ac8bd7d90ee22b6c1703490b6512fd83600160008f8f89818110610ded57fe5b9050602002016020810190610e029190612360565b6040518663ffffffff1660e01b8152600401610e22959493929190612b09565b600060405180830381600087803b158015610e3c57600080fd5b505af1158015610e50573d6000803e3d6000fd5b5050505080600560008c8c86818110610e6557fe5b9050602002016020810190610e7a9190612360565b73ffffffffffffffffffffffffffffffffffffffff1673ffffffffffffffffffffffffffffffffffffffff1681526020019081526020016000206000828254019250508190555080600160008c8c86818110610ed257fe5b9050602002016020810190610ee79190612360565b73ffffffffffffffffffffffffffffffffffffffff1673ffffffffffffffffffffffffffffffffffffffff168152602001908152602001600020600201600082825401925050819055508083019250898983818110610f4257fe5b9050602002016020810190610f579190612360565b73ffffffffffffffffffffffffffffffffffffffff163373ffffffffffffffffffffffffffffffffffffffff167f312a5e5e1079f5dda4e95dbbd0b908b291fd5b992ef22073643ab691572c5b528a8a86818110610fb157fe5b9050602002016020810190610fc69190612527565b604051610fd39190612c8d565b60405180910390a3508080600101915050610d45565b5060008311156110af5773e0fba4fc209b4948668006b2be61711b7f465bae73ffffffffffffffffffffffffffffffffffffffff1663573ade8173ff795577d9ac8bd7d90ee22b6c1703490b6512fd836001336040518563ffffffff1660e01b815260040161105b9493929190612ac4565b602060405180830381600087803b15801561107557600080fd5b505af1158015611089573d6000803e3d6000fd5b505050506040513d601f19601f820116820180604052508101906110ad9190612579565b505b6000600160003373ffffffffffffffffffffffffffffffffffffffff1673ffffffffffffffffffffffffffffffffffffffff168152602001908152602001600020600101819055506000600160003373ffffffffffffffffffffffffffffffffffffffff1673ffffffffffffffffffffffffffffffffffffffff168152602001908152602001600020600201819055506000600560003373ffffffffffffffffffffffffffffffffffffffff1673ffffffffffffffffffffffffffffffffffffffff16815260200190815260200160002081905550600073dcf0af9e59c002fa3aa091a46196b37530fd48a873ffffffffffffffffffffffffffffffffffffffff166370a08231336040518263ffffffff1660e01b81526004016111d3919061291b565b60206040518083038186803b1580156111eb57600080fd5b505afa1580156111ff573d6000803e3d6000fd5b505050506040513d601f19601f820116820180604052508101906112239190612579565b905073dcf0af9e59c002fa3aa091a46196b37530fd48a873ffffffffffffffffffffffffffffffffffffffff166323b872dd3330846040518463ffffffff1660e01b815260040161127693929190612951565b602060405180830381600087803b15801561129057600080fd5b505af11580156112a4573d6000803e3d6000fd5b505050506040513d601f19601f820116820180604052508101906112c891906124fe565b5073e0fba4fc209b4948668006b2be61711b7f465bae73ffffffffffffffffffffffffffffffffffffffff166369328dec73ff795577d9ac8bd7d90ee22b6c1703490b6512fd83336040518463ffffffff1660e01b815260040161132e93929190612a03565b602060405180830381600087803b15801561134857600080fd5b505af115801561135c573d6000803e3d6000fd5b505050506040513d601f19601f820116820180604052508101906113809190612579565b50505050505050505050565b6000670de0b6b3a76400008202905073ff795577d9ac8bd7d90ee22b6c1703490b6512fd73ffffffffffffffffffffffffffffffffffffffff166323b872dd3330846040518463ffffffff1660e01b81526004016113ec93929190612951565b602060405180830381600087803b15801561140657600080fd5b505af115801561141a573d6000803e3d6000fd5b505050506040513d601f19601f8201168201806040525081019061143e91906124fe565b5073e0fba4fc209b4948668006b2be61711b7f465bae73ffffffffffffffffffffffffffffffffffffffff1663e8eda9df73ff795577d9ac8bd7d90ee22b6c1703490b6512fd833360006040518563ffffffff1660e01b81526004016114a79493929190612a3a565b600060405180830381600087803b1580156114c157600080fd5b505af11580156114d5573d6000803e3d6000fd5b50505050600160003373ffffffffffffffffffffffffffffffffffffffff1673ffffffffffffffffffffffffffffffffffffffff16815260200190815260200160002060000160009054906101000a900460ff166115eb576000339080600181540180825580915050600190039060005260206000200160009091909190916101000a81548173ffffffffffffffffffffffffffffffffffffffff021916908373ffffffffffffffffffffffffffffffffffffffff16021790555060018060003373ffffffffffffffffffffffffffffffffffffffff1673ffffffffffffffffffffffffffffffffffffffff16815260200190815260200160002060000160006101000a81548160ff0219169083151502179055505b80600160003373ffffffffffffffffffffffffffffffffffffffff1673ffffffffffffffffffffffffffffffffffffffff168152602001908152602001600020600101600082825401925050819055503373ffffffffffffffffffffffffffffffffffffffff167fb0d234274aef7a61aa5a2eb44c23881ebf46a068cccbd413c978bcbd555fe17f826040516116819190612ca8565b60405180910390a25050565b600360003373ffffffffffffffffffffffffffffffffffffffff1673ffffffffffffffffffffffffffffffffffffffff16815260200190815260200160002060000160009054906101000a900460ff1661171c576040517f08c379a000000000000000000000000000000000000000000000000000000000815260040161171390612c0d565b60405180910390fd5b6000733c73a5e5785cac854d468f727c606c07488a29d673ffffffffffffffffffffffffffffffffffffffff1663d2493b6c73ff795577d9ac8bd7d90ee22b6c1703490b6512fd6040518263ffffffff1660e01b815260040161177f919061291b565b60606040518083038186803b15801561179757600080fd5b505afa1580156117ab573d6000803e3d6000fd5b505050506040513d601f19601f820116820180604052508101906117cf91906123c5565b50915050600081905060006117e26121e1565b60005b8888905081101561198b57600560008a8a8481811061180057fe5b90506020020160208101906118159190612360565b73ffffffffffffffffffffffffffffffffffffffff1673ffffffffffffffffffffffffffffffffffffffff16815260200190815260200160002054670de0b6b3a764000088888481811061186557fe5b90506020020135021415611936578373ffffffffffffffffffffffffffffffffffffffff166370a082318a8a8481811061189b57fe5b90506020020160208101906118b09190612360565b6040518263ffffffff1660e01b81526004016118cc919061291b565b60206040518083038186803b1580156118e457600080fd5b505afa1580156118f8573d6000803e3d6000fd5b505050506040513d601f19601f8201168201806040525081019061191c9190612579565b82826040811061192857fe5b602002018181525050611969565b670de0b6b3a764000087878381811061194b57fe5b905060200201350282826040811061195f57fe5b6020020181815250505b81816040811061197557fe5b60200201518301925080806001019150506117e5565b5073ff795577d9ac8bd7d90ee22b6c1703490b6512fd73ffffffffffffffffffffffffffffffffffffffff166323b872dd3330856040518463ffffffff1660e01b81526004016119dd93929190612951565b602060405180830381600087803b1580156119f757600080fd5b505af1158015611a0b573d6000803e3d6000fd5b505050506040513d601f19601f82011682018060405250810190611a2f91906124fe565b5060005b88889050811015611cea5773e0fba4fc209b4948668006b2be61711b7f465bae73ffffffffffffffffffffffffffffffffffffffff1663573ade8173ff795577d9ac8bd7d90ee22b6c1703490b6512fd848460408110611a8f57fe5b602002015160018d8d87818110611aa257fe5b9050602002016020810190611ab79190612360565b6040518563ffffffff1660e01b8152600401611ad69493929190612a7f565b602060405180830381600087803b158015611af057600080fd5b505af1158015611b04573d6000803e3d6000fd5b505050506040513d601f19601f82011682018060405250810190611b289190612579565b50670de0b6b3a7640000878783818110611b3e57fe5b9050602002013502600560008b8b85818110611b5657fe5b9050602002016020810190611b6b9190612360565b73ffffffffffffffffffffffffffffffffffffffff1673ffffffffffffffffffffffffffffffffffffffff16815260200190815260200160002060008282540392505081905550670de0b6b3a7640000878783818110611bc757fe5b9050602002013502600160008b8b85818110611bdf57fe5b9050602002016020810190611bf49190612360565b73ffffffffffffffffffffffffffffffffffffffff1673ffffffffffffffffffffffffffffffffffffffff16815260200190815260200160002060020160008282540392505081905550888882818110611c4a57fe5b9050602002016020810190611c5f9190612360565b73ffffffffffffffffffffffffffffffffffffffff163373ffffffffffffffffffffffffffffffffffffffff167f05f2eeda0e08e4b437f487c8d7d29b14537d15e3488170dc3de5dbdf8dac4684670de0b6b3a7640000858560408110611cc257fe5b602002015102604051611cd59190612ca8565b60405180910390a38080600101915050611a33565b505050505050505050565b600860009054906101000a900473ffffffffffffffffffffffffffffffffffffffff1673ffffffffffffffffffffffffffffffffffffffff163373ffffffffffffffffffffffffffffffffffffffff1614611d85576040517f08c379a0000000000000000000000000000000000000000000000000000000008152600401611d7c90612bed565b60405180910390fd5b60001515600360008373ffffffffffffffffffffffffffffffffffffffff1673ffffffffffffffffffffffffffffffffffffffff16815260200190815260200160002060000160009054906101000a900460ff1615151415611ea0576001600360008373ffffffffffffffffffffffffffffffffffffffff1673ffffffffffffffffffffffffffffffffffffffff16815260200190815260200160002060000160006101000a81548160ff0219169083151502179055506002819080600181540180825580915050600190039060005260206000200160009091909190916101000a81548173ffffffffffffffffffffffffffffffffffffffff021916908373ffffffffffffffffffffffffffffffffffffffff1602179055505b50565b6000811480611f3c575060008373ffffffffffffffffffffffffffffffffffffffff1663dd62ed3e30856040518363ffffffff1660e01b8152600401611eea9291906129b1565b60206040518083038186803b158015611f0257600080fd5b505afa158015611f16573d6000803e3d6000fd5b505050506040513d601f19601f82011682018060405250810190611f3a9190612579565b145b611f7b576040517f08c379a0000000000000000000000000000000000000000000000000000000008152600401611f7290612c4d565b60405180910390fd5b611ffc8363095ea7b360e01b8484604051602401611f9a9291906129da565b604051602081830303815290604052907bffffffffffffffffffffffffffffffffffffffffffffffffffffffff19166020820180517bffffffffffffffffffffffffffffffffffffffffffffffffffffffff838183161783525050505061204c565b505050565b60008060007fc5d2460186f7233c927e7db2dcc703c0e500b653ca82273b7bfad8045d85a47060001b9050833f915080821415801561204357506000801b8214155b92505050919050565b61206b8273ffffffffffffffffffffffffffffffffffffffff16612001565b6120aa576040517f08c379a00000000000000000000000000000000000000000000000000000000081526004016120a190612c6d565b60405180910390fd5b600060608373ffffffffffffffffffffffffffffffffffffffff16836040516120d39190612904565b6000604051808303816000865af19150503d8060008114612110576040519150601f19603f3d011682016040523d82523d6000602084013e612115565b606091505b50915091508161215a576040517f08c379a000000000000000000000000000000000000000000000000000000000815260040161215190612bcd565b60405180910390fd5b6000815111156121b8578080602001905181019061217891906124fe565b6121b7576040517f08c379a00000000000000000000000000000000000000000000000000000000081526004016121ae90612c2d565b60405180910390fd5b5b50505050565b604051806108000160405280604090602082028036833780820191505090505090565b604051806108000160405280604090602082028036833780820191505090505090565b60008135905061221381612e39565b92915050565b60008151905061222881612e39565b92915050565b60008083601f84011261224057600080fd5b8235905067ffffffffffffffff81111561225957600080fd5b60208301915083602082028301111561227157600080fd5b9250929050565b60008083601f84011261228a57600080fd5b8235905067ffffffffffffffff8111156122a357600080fd5b6020830191508360208202830111156122bb57600080fd5b9250929050565b60008083601f8401126122d457600080fd5b8235905067ffffffffffffffff8111156122ed57600080fd5b60208301915083602082028301111561230557600080fd5b9250929050565b60008151905061231b81612e50565b92915050565b60008135905061233081612e67565b92915050565b60008135905061234581612e7e565b92915050565b60008151905061235a81612e7e565b92915050565b60006020828403121561237257600080fd5b600061238084828501612204565b91505092915050565b6000806040838503121561239c57600080fd5b60006123aa85828601612204565b92505060206123bb85828601612204565b9150509250929050565b6000806000606084860312156123da57600080fd5b60006123e886828701612219565b93505060206123f986828701612219565b925050604061240a86828701612219565b9150509250925092565b6000806000806040858703121561242a57600080fd5b600085013567ffffffffffffffff81111561244457600080fd5b6124508782880161222e565b9450945050602085013567ffffffffffffffff81111561246f57600080fd5b61247b87828801612278565b925092505092959194509250565b6000806000806040858703121561249f57600080fd5b600085013567ffffffffffffffff8111156124b957600080fd5b6124c58782880161222e565b9450945050602085013567ffffffffffffffff8111156124e457600080fd5b6124f0878288016122c2565b925092505092959194509250565b60006020828403121561251057600080fd5b600061251e8482850161230c565b91505092915050565b60006020828403121561253957600080fd5b600061254784828501612321565b91505092915050565b60006020828403121561256257600080fd5b600061257084828501612336565b91505092915050565b60006020828403121561258b57600080fd5b60006125998482850161234b565b91505092915050565b60006125ae83836125e1565b60208301905092915050565b60006125c683836128e6565b60208301905092915050565b6125db81612d9a565b82525050565b6125ea81612d44565b82525050565b6125f981612d44565b82525050565b61260881612cd7565b6126128184612d12565b925061261d82612cc3565b8060005b8381101561264e57815161263587826125a2565b965061264083612cf8565b925050600181019050612621565b505050505050565b61265f81612ce2565b6126698184612d1d565b925061267482612ccd565b8060005b838110156126a557815161268c87826125ba565b965061269783612d05565b925050600181019050612678565b505050505050565b6126b681612d56565b82525050565b60006126c782612ced565b6126d18185612d28565b93506126e1818560208601612e06565b80840191505092915050565b6126f681612dac565b82525050565b61270581612dbe565b82525050565b6000612718602083612d33565b91507f5361666545524332303a206c6f772d6c6576656c2063616c6c206661696c65646000830152602082019050919050565b6000612758601583612d33565b91507f73656e646572206e6f7420617574686f72697a656400000000000000000000006000830152602082019050919050565b6000612798601783612d33565b91507f6e6f7420616e20616c6c6f77656420626f72726f7765720000000000000000006000830152602082019050919050565b60006127d8602a83612d33565b91507f5361666545524332303a204552433230206f7065726174696f6e20646964206e60008301527f6f742073756363656564000000000000000000000000000000000000000000006020830152604082019050919050565b600061283e603683612d33565b91507f5361666545524332303a20617070726f76652066726f6d206e6f6e2d7a65726f60008301527f20746f206e6f6e2d7a65726f20616c6c6f77616e6365000000000000000000006020830152604082019050919050565b60006128a4601f83612d33565b91507f5361666545524332303a2063616c6c20746f206e6f6e2d636f6e7472616374006000830152602082019050919050565b6128e081612df4565b82525050565b6128ef81612d90565b82525050565b6128fe81612d90565b82525050565b600061291082846126bc565b915081905092915050565b600060208201905061293060008301846125f0565b92915050565b600060208201905061294b60008301846125d2565b92915050565b600060608201905061296660008301866125d2565b61297360208301856125f0565b61298060408301846128f5565b949350505050565b600060408201905061299d60008301856125d2565b6129aa60208301846128f5565b9392505050565b60006040820190506129c660008301856125f0565b6129d360208301846125f0565b9392505050565b60006040820190506129ef60008301856125f0565b6129fc60208301846128f5565b9392505050565b6000606082019050612a1860008301866125f0565b612a2560208301856128f5565b612a3260408301846125d2565b949350505050565b6000608082019050612a4f60008301876125f0565b612a5c60208301866128f5565b612a6960408301856125d2565b612a7660608301846126ed565b95945050505050565b6000608082019050612a9460008301876125f0565b612aa160208301866128f5565b612aae60408301856126fc565b612abb60608301846125f0565b95945050505050565b6000608082019050612ad960008301876125f0565b612ae660208301866128f5565b612af360408301856126fc565b612b0060608301846125d2565b95945050505050565b600060a082019050612b1e60008301886125f0565b612b2b60208301876128f5565b612b3860408301866126fc565b612b4560608301856126ed565b612b5260808301846125f0565b9695505050505050565b600061180082019050612b7260008301866125ff565b612b80610800830185612656565b612b8e611000830184612656565b949350505050565b6000606082019050612bab60008301866126ad565b612bb860208301856128f5565b612bc560408301846128f5565b949350505050565b60006020820190508181036000830152612be68161270b565b9050919050565b60006020820190508181036000830152612c068161274b565b9050919050565b60006020820190508181036000830152612c268161278b565b9050919050565b60006020820190508181036000830152612c46816127cb565b9050919050565b60006020820190508181036000830152612c6681612831565b9050919050565b60006020820190508181036000830152612c8681612897565b9050919050565b6000602082019050612ca260008301846128d7565b92915050565b6000602082019050612cbd60008301846128f5565b92915050565b6000819050919050565b6000819050919050565b600060409050919050565b600060409050919050565b600081519050919050565b6000602082019050919050565b6000602082019050919050565b600081905092915050565b600081905092915050565b600081905092915050565b600082825260208201905092915050565b6000612d4f82612d70565b9050919050565b60008115159050919050565b600061ffff82169050919050565b600073ffffffffffffffffffffffffffffffffffffffff82169050919050565b6000819050919050565b6000612da582612dd0565b9050919050565b6000612db782612d62565b9050919050565b6000612dc982612d90565b9050919050565b6000612ddb82612de2565b9050919050565b6000612ded82612d70565b9050919050565b6000612dff82612d62565b9050919050565b60005b83811015612e24578082015181840152602081019050612e09565b83811115612e33576000848401525b50505050565b612e4281612d44565b8114612e4d57600080fd5b50565b612e5981612d56565b8114612e6457600080fd5b50565b612e7081612d62565b8114612e7b57600080fd5b50565b612e8781612d90565b8114612e9257600080fd5b5056fea26469706673582212201d5d7ca034081d989e36f0beb2f8f88ff45f4ddd35057bfff0bf6a6fc7dfd1fd64736f6c63430007030033",
  "linkReferences": {},
  "deployedLinkReferences": {}
}